{
  "transactions": [
    {
      "hash": "0x8898423d34fa20bd155bfc2d53320ff9a02b1b8756fc3970b565d4391003b0d3",
      "transactionType": "CALL",
      "contractName": null,
      "contractAddress": "0x68cc4eb23aea60c94434336fcdd6680d191c60ec",
      "function": "registerIdentity(address,bytes32)",
      "arguments": [
        "0x5606D16d531b2eFDdA53C8E5aEB4CaB09b858F26",
        "0xddf5c70de1e181115cef9639c8fd5f367daf8891a309e2ace01ca0d71eb55f4a"
      ],
      "transaction": {
        "from": "0x7ca2331b559ab659ac7a4a7573fadd3dfb91f19c",
        "to": "0x68cc4eb23aea60c94434336fcdd6680d191c60ec",
        "gas": "0x130e09",
        "value": "0x0",
        "input": "0xe2706d070000000000000000000000005606d16d531b2efdda53c8e5aeb4cab09b858f26ddf5c70de1e181115cef9639c8fd5f367daf8891a309e2ace01ca0d71eb55f4a",
        "nonce": "0x118",
        "chainId": "0xaa36a7"
      },
      "additionalContracts": [],
      "isFixedGasLimit": false
    }
  ],
  "receipts": [
    {
      "status": "0x1",
      "cumulativeGasUsed": "0x1c23a3b",
      "logs": [
        {
          "address": "0xd789796f176954476b0001c690de820fc30ed7b5",
          "topics": [
            "0x103cd5403410d6908bdc2f851448a30f60c77a8af566d2a82b2404582e0eb612",
            "0x0000000000000000000000000000000000000000000000000000000000000001",
            "0x91628fc6e62228386087a41704ebe050b1eebe815a1375e9e2de6321e9f6fb3c",
            "0x0000000000000000000000005606d16d531b2efdda53c8e5aeb4cab09b858f26"
          ],
          "data": "0x000000000000000000000000c2f31204b7d31ee333855cce9b83e2d6f00b28670000000000000000000000000000000000000000000000000000000000000000",
          "blockHash": "0x17fc0a7b3d88327c0267eeaf95a54ad98189e1e7d0ba5f18c6d59ab67c64fcbb",
          "blockNumber": "0x8d72dc",
          "blockTimestamp": "0x68d3f09c",
          "transactionHash": "0x8898423d34fa20bd155bfc2d53320ff9a02b1b8756fc3970b565d4391003b0d3",
          "transactionIndex": "0x86",
          "logIndex": "0xc7",
          "removed": false
        },
        {
          "address": "0xc2f31204b7d31ee333855cce9b83e2d6f00b2867",
          "topics": [
            "0x51f3e16491a1245725e3dd6aab55df59539bc9a5a3c1984f588ca1beef5d2238",
            "0x0000000000000000000000005606d16d531b2efdda53c8e5aeb4cab09b858f26"
          ],
          "data": "0x",
          "blockHash": "0x17fc0a7b3d88327c0267eeaf95a54ad98189e1e7d0ba5f18c6d59ab67c64fcbb",
          "blockNumber": "0x8d72dc",
          "blockTimestamp": "0x68d3f09c",
          "transactionHash": "0x8898423d34fa20bd155bfc2d53320ff9a02b1b8756fc3970b565d4391003b0d3",
          "transactionIndex": "0x86",
          "logIndex": "0xc8",
          "removed": false
        },
        {
          "address": "0xd789796f176954476b0001c690de820fc30ed7b5",
          "topics": [
            "0x103cd5403410d6908bdc2f851448a30f60c77a8af566d2a82b2404582e0eb612",
            "0x0000000000000000000000000000000000000000000000000000000000000002",
            "0x09c857b36f13708a25c978acd3557d87c8fa7b7cb804a450175aa00bc9717ed2",
            "0x0000000000000000000000005606d16d531b2efdda53c8e5aeb4cab09b858f26"
          ],
          "data": "0x00000000000000000000000068cc4eb23aea60c94434336fcdd6680d191c60ecddf5c70de1e181115cef9639c8fd5f367daf8891a309e2ace01ca0d71eb55f4a",
          "blockHash": "0x17fc0a7b3d88327c0267eeaf95a54ad98189e1e7d0ba5f18c6d59ab67c64fcbb",
          "blockNumber": "0x8d72dc",
          "blockTimestamp": "0x68d3f09c",
          "transactionHash": "0x8898423d34fa20bd155bfc2d53320ff9a02b1b8756fc3970b565d4391003b0d3",
          "transactionIndex": "0x86",
          "logIndex": "0xc9",
          "removed": false
        },
        {
          "address": "0x68cc4eb23aea60c94434336fcdd6680d191c60ec",
          "topics": [
            "0x209ae2eb4ff1890ce972a80ec3e167b52d41ab089135cc6430447b1430e824be",
            "0x0000000000000000000000005606d16d531b2efdda53c8e5aeb4cab09b858f26",
            "0xddf5c70de1e181115cef9639c8fd5f367daf8891a309e2ace01ca0d71eb55f4a"
          ],
          "data": "0x",
          "blockHash": "0x17fc0a7b3d88327c0267eeaf95a54ad98189e1e7d0ba5f18c6d59ab67c64fcbb",
          "blockNumber": "0x8d72dc",
          "blockTimestamp": "0x68d3f09c",
          "transactionHash": "0x8898423d34fa20bd155bfc2d53320ff9a02b1b8756fc3970b565d4391003b0d3",
          "transactionIndex": "0x86",
          "logIndex": "0xca",
          "removed": false
        }
      ],
      "logsBloom": "0x0400800000000000000000000000100082000000000000000000000000000000000000000800000000000000000000000000000000000000000000000404024000000000000000004000000000000000000000200004000000002800080000000000000000000000000000000000000000000000000000004000400000000000000000002000000010000000000000000000000000000004000000080020000000040004000000000000010000000000000000000000000000010100000010000000000000000000100000000000000000000000000000000000000000044000000000000000000000002000000000000c000000008000000000000000000000",
      "type": "0x2",
      "transactionHash": "0x8898423d34fa20bd155bfc2d53320ff9a02b1b8756fc3970b565d4391003b0d3",
      "transactionIndex": "0x86",
      "blockHash": "0x17fc0a7b3d88327c0267eeaf95a54ad98189e1e7d0ba5f18c6d59ab67c64fcbb",
      "blockNumber": "0x8d72dc",
      "gasUsed": "0xdcb9d",
      "effectiveGasPrice": "0x112ad9",
      "from": "0x7ca2331b559ab659ac7a4a7573fadd3dfb91f19c",
      "to": "0x68cc4eb23aea60c94434336fcdd6680d191c60ec",
      "contractAddress": null
    }
  ],
  "libraries": [],
  "pending": [],
  "returns": {},
  "timestamp": 1758720158267,
  "chain": 11155111,
  "commit": "cf7e2eb"
}