{
  "transactions": [
    {
      "hash": "0x3763e7591335dc502496eb260f2904483fe16919f46f6097a381d554006051a3",
      "transactionType": "CALL",
      "contractName": null,
      "contractAddress": "0x9f10b462ead0efbe1507713f777482911bdfcb82",
      "function": "registerIdentity(address,bytes32)",
      "arguments": [
        "0x5606D16d531b2eFDdA53C8E5aEB4CaB09b858F26",
        "0xddf5c70de1e181115cef9639c8fd5f367daf8891a309e2ace01ca0d71eb55f4a"
      ],
      "transaction": {
        "from": "0x7ca2331b559ab659ac7a4a7573fadd3dfb91f19c",
        "to": "0x9f10b462ead0efbe1507713f777482911bdfcb82",
        "gas": "0x130e09",
        "value": "0x0",
        "input": "0xe2706d070000000000000000000000005606d16d531b2efdda53c8e5aeb4cab09b858f26ddf5c70de1e181115cef9639c8fd5f367daf8891a309e2ace01ca0d71eb55f4a",
        "nonce": "0xf1",
        "chainId": "0xaa36a7"
      },
      "additionalContracts": [],
      "isFixedGasLimit": false
    }
  ],
  "receipts": [
    {
      "status": "0x1",
      "cumulativeGasUsed": "0x158899c",
      "logs": [
        {
          "address": "0x2993d1ba363276469eafb667f237a441717a433e",
          "topics": [
            "0x103cd5403410d6908bdc2f851448a30f60c77a8af566d2a82b2404582e0eb612",
            "0x0000000000000000000000000000000000000000000000000000000000000001",
            "0x91628fc6e62228386087a41704ebe050b1eebe815a1375e9e2de6321e9f6fb3c",
            "0x0000000000000000000000005606d16d531b2efdda53c8e5aeb4cab09b858f26"
          ],
          "data": "0x000000000000000000000000e9501390aff62f799b0b033bed47d69c59b812430000000000000000000000000000000000000000000000000000000000000000",
          "blockHash": "0x634320ceb79551819683aa59b443bcdc0e6e2a90c6329d89c2ec085156ce746d",
          "blockNumber": "0x8d4abf",
          "blockTimestamp": "0x68d1ff2c",
          "transactionHash": "0x3763e7591335dc502496eb260f2904483fe16919f46f6097a381d554006051a3",
          "transactionIndex": "0x69",
          "logIndex": "0x84",
          "removed": false
        },
        {
          "address": "0xe9501390aff62f799b0b033bed47d69c59b81243",
          "topics": [
            "0x51f3e16491a1245725e3dd6aab55df59539bc9a5a3c1984f588ca1beef5d2238",
            "0x0000000000000000000000005606d16d531b2efdda53c8e5aeb4cab09b858f26"
          ],
          "data": "0x",
          "blockHash": "0x634320ceb79551819683aa59b443bcdc0e6e2a90c6329d89c2ec085156ce746d",
          "blockNumber": "0x8d4abf",
          "blockTimestamp": "0x68d1ff2c",
          "transactionHash": "0x3763e7591335dc502496eb260f2904483fe16919f46f6097a381d554006051a3",
          "transactionIndex": "0x69",
          "logIndex": "0x85",
          "removed": false
        },
        {
          "address": "0x2993d1ba363276469eafb667f237a441717a433e",
          "topics": [
            "0x103cd5403410d6908bdc2f851448a30f60c77a8af566d2a82b2404582e0eb612",
            "0x0000000000000000000000000000000000000000000000000000000000000002",
            "0x09c857b36f13708a25c978acd3557d87c8fa7b7cb804a450175aa00bc9717ed2",
            "0x0000000000000000000000005606d16d531b2efdda53c8e5aeb4cab09b858f26"
          ],
          "data": "0x0000000000000000000000009f10b462ead0efbe1507713f777482911bdfcb82ddf5c70de1e181115cef9639c8fd5f367daf8891a309e2ace01ca0d71eb55f4a",
          "blockHash": "0x634320ceb79551819683aa59b443bcdc0e6e2a90c6329d89c2ec085156ce746d",
          "blockNumber": "0x8d4abf",
          "blockTimestamp": "0x68d1ff2c",
          "transactionHash": "0x3763e7591335dc502496eb260f2904483fe16919f46f6097a381d554006051a3",
          "transactionIndex": "0x69",
          "logIndex": "0x86",
          "removed": false
        },
        {
          "address": "0x9f10b462ead0efbe1507713f777482911bdfcb82",
          "topics": [
            "0x209ae2eb4ff1890ce972a80ec3e167b52d41ab089135cc6430447b1430e824be",
            "0x0000000000000000000000005606d16d531b2efdda53c8e5aeb4cab09b858f26",
            "0xddf5c70de1e181115cef9639c8fd5f367daf8891a309e2ace01ca0d71eb55f4a"
          ],
          "data": "0x",
          "blockHash": "0x634320ceb79551819683aa59b443bcdc0e6e2a90c6329d89c2ec085156ce746d",
          "blockNumber": "0x8d4abf",
          "blockTimestamp": "0x68d1ff2c",
          "transactionHash": "0x3763e7591335dc502496eb260f2904483fe16919f46f6097a381d554006051a3",
          "transactionIndex": "0x69",
          "logIndex": "0x87",
          "removed": false
        }
      ],
      "logsBloom": "0x0400000000000000000000000000100082000000000000000000000000000000000000000800000000000000000000000002000000000000000000000444000000000000000000004000000000000000000000200004000000002800000000000000000000000000000200000000000000000000000000004000000000000000000000002000000000000000000000000000000000000004000000000000000000040004000000000000010000000000000000010000000000010000000010000000000000020000100000000000000000000000000000000000000000044020000000000000000000002100000200000c000000008000000000000000000000",
      "type": "0x2",
      "transactionHash": "0x3763e7591335dc502496eb260f2904483fe16919f46f6097a381d554006051a3",
      "transactionIndex": "0x69",
      "blockHash": "0x634320ceb79551819683aa59b443bcdc0e6e2a90c6329d89c2ec085156ce746d",
      "blockNumber": "0x8d4abf",
      "gasUsed": "0xdcb9d",
      "effectiveGasPrice": "0xf472f",
      "from": "0x7ca2331b559ab659ac7a4a7573fadd3dfb91f19c",
      "to": "0x9f10b462ead0efbe1507713f777482911bdfcb82",
      "contractAddress": null
    }
  ],
  "libraries": [],
  "pending": [],
  "returns": {},
  "timestamp": 1758592814504,
  "chain": 11155111,
  "commit": "cf7e2eb"
}