{
  "transactions": [
    {
      "hash": "0x890e583e91d89eb9876d81b52f2032502d3470b6c54316a508342ae668f3b492",
      "transactionType": "CALL",
      "contractName": null,
      "contractAddress": "0x9754f529b2c4acd30f3830d4198ae210667ed411",
      "function": "setBackendSigner(address,bool)",
      "arguments": [
        "0xE827EB87Dcfed45916f7Df2804d8621dC12a560b",
        "true"
      ],
      "transaction": {
        "from": "0x3706a57b29615f9af745470990e52f420ffd1fb5",
        "to": "0x9754f529b2c4acd30f3830d4198ae210667ed411",
        "gas": "0x9884",
        "value": "0x0",
        "input": "0xfce1f2f6000000000000000000000000e827eb87dcfed45916f7df2804d8621dc12a560b0000000000000000000000000000000000000000000000000000000000000001",
        "nonce": "0x6b",
        "chainId": "0xaa36a7"
      },
      "additionalContracts": [],
      "isFixedGasLimit": false
    },
    {
      "hash": "0xa1fa3377c6a0286fb4c4f5a03d8c073cbe56ca2ff4f1d5a409f6e4612e928f18",
      "transactionType": "CALL",
      "contractName": null,
      "contractAddress": "0x9754f529b2c4acd30f3830d4198ae210667ed411",
      "function": "registerUser(string)",
      "arguments": [
        "xxxx"
      ],
      "transaction": {
        "from": "0x3706a57b29615f9af745470990e52f420ffd1fb5",
        "to": "0x9754f529b2c4acd30f3830d4198ae210667ed411",
        "gas": "0xc297c",
        "value": "0x0",
        "input": "0x704f1b94000000000000000000000000000000000000000000000000000000000000002000000000000000000000000000000000000000000000000000000000000000047878787800000000000000000000000000000000000000000000000000000000",
        "nonce": "0x6c",
        "chainId": "0xaa36a7"
      },
      "additionalContracts": [],
      "isFixedGasLimit": false
    }
  ],
  "receipts": [
    {
      "status": "0x1",
      "cumulativeGasUsed": "0x15f58c6",
      "logs": [],
      "logsBloom": "0x00000000000000000000000000000000000000000000000000000000000000000000000000000000000000000000000000000000000000000000000000000000000000000000000000000000000000000000000000000000000000000000000000000000000000000000000000000000000000000000000000000000000000000000000000000000000000000000000000000000000000000000000000000000000000000000000000000000000000000000000000000000000000000000000000000000000000000000000000000000000000000000000000000000000000000000000000000000000000000000000000000000000000000000000000000000",
      "type": "0x2",
      "transactionHash": "0x890e583e91d89eb9876d81b52f2032502d3470b6c54316a508342ae668f3b492",
      "transactionIndex": "0xe0",
      "blockHash": "0xeb5c19387a1ebabb98cc0af9f82dca8ed09883f1b42cf7f1e55a91cb4402c822",
      "blockNumber": "0x8b6692",
      "gasUsed": "0x6e6c",
      "effectiveGasPrice": "0x2cac21",
      "from": "0x3706a57b29615f9af745470990e52f420ffd1fb5",
      "to": "0x9754f529b2c4acd30f3830d4198ae210667ed411",
      "contractAddress": null
    },
    {
      "status": "0x1",
      "cumulativeGasUsed": "0x167a9a7",
      "logs": [
        {
          "address": "0x2f257e2f78fdf76fc156e16b17e62e0357a5cec1",
          "topics": [
            "0x6c3344dbf6373a0e23bb997d854a2d94b7d721611377539589928c32fcf1c6e8",
            "0x0000000000000000000000000000000000000000000000000000000000000001",
            "0x0000000000000000000000003706a57b29615f9af745470990e52f420ffd1fb5",
            "0x0000000000000000000000009754f529b2c4acd30f3830d4198ae210667ed411"
          ],
          "data": "0x000000000000000000000000000000000000000000000000000000000000006000000000000000000000000000000000000000000000000000000000000000010000000000000000000000000000000000000000000000000000000068ba46780000000000000000000000000000000000000000000000000000000000000011555345525f524547495354524154494f4e000000000000000000000000000000",
          "blockHash": "0xeb5c19387a1ebabb98cc0af9f82dca8ed09883f1b42cf7f1e55a91cb4402c822",
          "blockNumber": "0x8b6692",
          "blockTimestamp": "0x68ba4678",
          "transactionHash": "0xa1fa3377c6a0286fb4c4f5a03d8c073cbe56ca2ff4f1d5a409f6e4612e928f18",
          "transactionIndex": "0xe1",
          "logIndex": "0x1bf",
          "removed": false
        },
        {
          "address": "0x9754f529b2c4acd30f3830d4198ae210667ed411",
          "topics": [
            "0xe29d35093005f4d575e1003753426b57a7f64378ba73332eef9c6ccc2b8decd6",
            "0x0000000000000000000000003706a57b29615f9af745470990e52f420ffd1fb5"
          ],
          "data": "0x0000000000000000000000000000000000000000000000000000000068ba4678",
          "blockHash": "0xeb5c19387a1ebabb98cc0af9f82dca8ed09883f1b42cf7f1e55a91cb4402c822",
          "blockNumber": "0x8b6692",
          "blockTimestamp": "0x68ba4678",
          "transactionHash": "0xa1fa3377c6a0286fb4c4f5a03d8c073cbe56ca2ff4f1d5a409f6e4612e928f18",
          "transactionIndex": "0xe1",
          "logIndex": "0x1c0",
          "removed": false
        }
      ],
      "logsBloom": "0x00400000000000000000000000000000000000000000000400000000000000001000000000000000000080000000000000000004000000200000000000040000000000000000000000000000000000000000000000040000000000000000000000000000000000000000000000000200000020000000000000001000000000000000000100000000000000000000000000000000200002000000000000000000000000000000000000000000000000000000000000000008000000000000000080008000000000000080000000000000000000000000000000800000000040000008000000000000000000000000000000000000000000000000000000000000",
      "type": "0x2",
      "transactionHash": "0xa1fa3377c6a0286fb4c4f5a03d8c073cbe56ca2ff4f1d5a409f6e4612e928f18",
      "transactionIndex": "0xe1",
      "blockHash": "0xeb5c19387a1ebabb98cc0af9f82dca8ed09883f1b42cf7f1e55a91cb4402c822",
      "blockNumber": "0x8b6692",
      "gasUsed": "0x850e1",
      "effectiveGasPrice": "0x2cac21",
      "from": "0x3706a57b29615f9af745470990e52f420ffd1fb5",
      "to": "0x9754f529b2c4acd30f3830d4198ae210667ed411",
      "contractAddress": null
    }
  ],
  "libraries": [],
  "pending": [],
  "returns": {},
  "timestamp": 1757038201699,
  "chain": 11155111,
  "commit": "209b9557"
}