{
  "transactions": [
    {
      "hash": "0x205d4fe792f6b7d0fda52c50b62b60a221fbb7af8c5ab77e0a70b3ff521a0eb1",
      "transactionType": "CALL",
      "contractName": null,
      "contractAddress": "0xe9501390aff62f799b0b033bed47d69c59b81243",
      "function": "grantRole(bytes32,address)",
      "arguments": [
        "0x4a83b62ba833bb00089c50043a232459cfd39d4117a1430bd940d1e73667f821",
        "0x9F10b462EAD0EFBe1507713F777482911bdfCb82"
      ],
      "transaction": {
        "from": "0x7ca2331b559ab659ac7a4a7573fadd3dfb91f19c",
        "to": "0xe9501390aff62f799b0b033bed47d69c59b81243",
        "gas": "0x12557",
        "value": "0x0",
        "input": "0x2f2ff15d4a83b62ba833bb00089c50043a232459cfd39d4117a1430bd940d1e73667f8210000000000000000000000009f10b462ead0efbe1507713f777482911bdfcb82",
        "nonce": "0xee",
        "chainId": "0xaa36a7"
      },
      "additionalContracts": [],
      "isFixedGasLimit": false
    }
  ],
  "receipts": [
    {
      "status": "0x1",
      "cumulativeGasUsed": "0xf66fa2",
      "logs": [
        {
          "address": "0xe9501390aff62f799b0b033bed47d69c59b81243",
          "topics": [
            "0x2f8788117e7eff1d82e926ec794901d17c78024a50270940304540a733656f0d",
            "0x4a83b62ba833bb00089c50043a232459cfd39d4117a1430bd940d1e73667f821",
            "0x0000000000000000000000009f10b462ead0efbe1507713f777482911bdfcb82",
            "0x0000000000000000000000007ca2331b559ab659ac7a4a7573fadd3dfb91f19c"
          ],
          "data": "0x",
          "blockHash": "0xe1f54d33f5cc97096695f23fc9d86b8c45cd8db55d5efcb53cb5b581249caad9",
          "blockNumber": "0x8d4aa3",
          "blockTimestamp": "0x68d1fdd0",
          "transactionHash": "0x205d4fe792f6b7d0fda52c50b62b60a221fbb7af8c5ab77e0a70b3ff521a0eb1",
          "transactionIndex": "0x4b",
          "logIndex": "0x5f",
          "removed": false
        }
      ],
      "logsBloom": "0x00000004000000000000000000000000000000000000000001000000000000000000000000004000000000000000000000020000000000000000000000400800000000000000000000000000000000000000000000000000000000000000000000000000000000000000000000000000000000000000000000000000000000000000008000000000000000000000000000000000000000000000000000000000000400000000000000000000000000000000000000000000001000000000000000000000000000000000000000020000000000000000000100000000000010000000000000000000000201000000000000000000000000000000000000080000",
      "type": "0x2",
      "transactionHash": "0x205d4fe792f6b7d0fda52c50b62b60a221fbb7af8c5ab77e0a70b3ff521a0eb1",
      "transactionIndex": "0x4b",
      "blockHash": "0xe1f54d33f5cc97096695f23fc9d86b8c45cd8db55d5efcb53cb5b581249caad9",
      "blockNumber": "0x8d4aa3",
      "gasUsed": "0xd460",
      "effectiveGasPrice": "0xf476f",
      "from": "0x7ca2331b559ab659ac7a4a7573fadd3dfb91f19c",
      "to": "0xe9501390aff62f799b0b033bed47d69c59b81243",
      "contractAddress": null
    }
  ],
  "libraries": [],
  "pending": [],
  "returns": {},
  "timestamp": 1758592465414,
  "chain": 11155111,
  "commit": "cf7e2eb"
}