{
  "transactions": [
    {
      "hash": "0x1cef8de29f9ed85b07800dc0a7a5d141c1e432425afaa8761fe90d7baf9a52dd",
      "transactionType": "CALL",
      "contractName": null,
      "contractAddress": "0xc2f31204b7d31ee333855cce9b83e2d6f00b2867",
      "function": "grantRole(bytes32,address)",
      "arguments": [
        "0x4a83b62ba833bb00089c50043a232459cfd39d4117a1430bd940d1e73667f821",
        "0x68cc4eB23Aea60c94434336fCDd6680D191C60ec"
      ],
      "transaction": {
        "from": "0x7ca2331b559ab659ac7a4a7573fadd3dfb91f19c",
        "to": "0xc2f31204b7d31ee333855cce9b83e2d6f00b2867",
        "gas": "0x12557",
        "value": "0x0",
        "input": "0x2f2ff15d4a83b62ba833bb00089c50043a232459cfd39d4117a1430bd940d1e73667f82100000000000000000000000068cc4eb23aea60c94434336fcdd6680d191c60ec",
        "nonce": "0x115",
        "chainId": "0xaa36a7"
      },
      "additionalContracts": [],
      "isFixedGasLimit": false
    }
  ],
  "receipts": [
    {
      "status": "0x1",
      "cumulativeGasUsed": "0x1b422a3",
      "logs": [
        {
          "address": "0xc2f31204b7d31ee333855cce9b83e2d6f00b2867",
          "topics": [
            "0x2f8788117e7eff1d82e926ec794901d17c78024a50270940304540a733656f0d",
            "0x4a83b62ba833bb00089c50043a232459cfd39d4117a1430bd940d1e73667f821",
            "0x00000000000000000000000068cc4eb23aea60c94434336fcdd6680d191c60ec",
            "0x0000000000000000000000007ca2331b559ab659ac7a4a7573fadd3dfb91f19c"
          ],
          "data": "0x",
          "blockHash": "0xee31bbab047cf1d838f0d81097aef43dbd5208a3091cec8df5868cefedc9f522",
          "blockNumber": "0x8d7297",
          "blockTimestamp": "0x68d3ed54",
          "transactionHash": "0x1cef8de29f9ed85b07800dc0a7a5d141c1e432425afaa8761fe90d7baf9a52dd",
          "transactionIndex": "0x9a",
          "logIndex": "0x132",
          "removed": false
        }
      ],
      "logsBloom": "0x00008004000000000000000000000000000000000000000001000000000000000000000000000000000000000000000000000000000000000000000000000840000000000000000000000000000000000000000000000000000000000000000000000000000000000000000000000000000000000000000000000000000000000000008000000000100000000000000000000040000000000000000000004000000400000000000000000000000000000000000000002000001000000000000000000000000000000000000000020000000000000000000100000000000000000000000000000000000000000000000000000000000000000000000000080000",
      "type": "0x2",
      "transactionHash": "0x1cef8de29f9ed85b07800dc0a7a5d141c1e432425afaa8761fe90d7baf9a52dd",
      "transactionIndex": "0x9a",
      "blockHash": "0xee31bbab047cf1d838f0d81097aef43dbd5208a3091cec8df5868cefedc9f522",
      "blockNumber": "0x8d7297",
      "gasUsed": "0xd460",
      "effectiveGasPrice": "0xf42a7",
      "from": "0x7ca2331b559ab659ac7a4a7573fadd3dfb91f19c",
      "to": "0xc2f31204b7d31ee333855cce9b83e2d6f00b2867",
      "contractAddress": null
    }
  ],
  "libraries": [],
  "pending": [],
  "returns": {},
  "timestamp": 1758719316870,
  "chain": 11155111,
  "commit": "cf7e2eb"
}