{
  "transactions": [
    {
      "hash": "0x2a0bdff35957fc6685f332912629f5e0403b42009c815b5f92a833ff8a59368b",
      "transactionType": "CALL",
      "contractName": null,
      "contractAddress": "0x8db4320528b1ca9d392a79bdec9325517a99358e",
      "function": "grantRole(bytes32,address)",
      "arguments": [
        "0x4a83b62ba833bb00089c50043a232459cfd39d4117a1430bd940d1e73667f821",
        "0x275A441FFE230dE489C291597b6266F9F1D3ee99"
      ],
      "transaction": {
        "from": "0x7ca2331b559ab659ac7a4a7573fadd3dfb91f19c",
        "to": "0x8db4320528b1ca9d392a79bdec9325517a99358e",
        "gas": "0x12557",
        "value": "0x0",
        "input": "0x2f2ff15d4a83b62ba833bb00089c50043a232459cfd39d4117a1430bd940d1e73667f821000000000000000000000000275a441ffe230de489c291597b6266f9f1d3ee99",
        "nonce": "0x108",
        "chainId": "0xaa36a7"
      },
      "additionalContracts": [],
      "isFixedGasLimit": false
    }
  ],
  "receipts": [
    {
      "status": "0x1",
      "cumulativeGasUsed": "0x1df319f",
      "logs": [
        {
          "address": "0x8db4320528b1ca9d392a79bdec9325517a99358e",
          "topics": [
            "0x2f8788117e7eff1d82e926ec794901d17c78024a50270940304540a733656f0d",
            "0x4a83b62ba833bb00089c50043a232459cfd39d4117a1430bd940d1e73667f821",
            "0x000000000000000000000000275a441ffe230de489c291597b6266f9f1d3ee99",
            "0x0000000000000000000000007ca2331b559ab659ac7a4a7573fadd3dfb91f19c"
          ],
          "data": "0x",
          "blockHash": "0x2449bb44f929c3dbb2d09727898263ba76532fb736da061c9ef308dd82f89acf",
          "blockNumber": "0x8d723c",
          "blockTimestamp": "0x68d3e904",
          "transactionHash": "0x2a0bdff35957fc6685f332912629f5e0403b42009c815b5f92a833ff8a59368b",
          "transactionIndex": "0x8d",
          "logIndex": "0xb7",
          "removed": false
        }
      ],
      "logsBloom": "0x00000004000000000000000010000000000000000000000001000000000000000000000000000000000000000000000010000000000000000000000000000800000000000000000000000000000000000000200000000000000000000000000000000000000000000000000000000000000000000000000000000000000000000000008000000000000000000000000000000000000000000000000000000080000400000000000000000000000000000000000000000000001000000000000000000000000000000000020000020000000000000000000100000020000000000000000000000000000000000000000000000000000000000000000000080000",
      "type": "0x2",
      "transactionHash": "0x2a0bdff35957fc6685f332912629f5e0403b42009c815b5f92a833ff8a59368b",
      "transactionIndex": "0x8d",
      "blockHash": "0x2449bb44f929c3dbb2d09727898263ba76532fb736da061c9ef308dd82f89acf",
      "blockNumber": "0x8d723c",
      "gasUsed": "0xd460",
      "effectiveGasPrice": "0xf428c",
      "from": "0x7ca2331b559ab659ac7a4a7573fadd3dfb91f19c",
      "to": "0x8db4320528b1ca9d392a79bdec9325517a99358e",
      "contractAddress": null
    }
  ],
  "libraries": [],
  "pending": [],
  "returns": {},
  "timestamp": 1758718214468,
  "chain": 11155111,
  "commit": "cf7e2eb"
}