{
  "transactions": [
    {
      "hash": "0x9df92f79ee1a1fb6a19b51a536141c1ca1978c25008bf81e4e98499a227f7316",
      "transactionType": "CALL",
      "contractName": null,
      "contractAddress": "0xd789796f176954476b0001c690de820fc30ed7b5",
      "function": "grantRole(bytes32,address)",
      "arguments": [
        "0x566c814873eed56a69b28c40ab27cc2cb150d74068bae3e884ccd44f8de60f8a",
        "0xC2F31204B7D31Ee333855Cce9b83E2D6F00b2867"
      ],
      "transaction": {
        "from": "0x7ca2331b559ab659ac7a4a7573fadd3dfb91f19c",
        "to": "0xd789796f176954476b0001c690de820fc30ed7b5",
        "gas": "0x135c9",
        "value": "0x0",
        "input": "0x2f2ff15d566c814873eed56a69b28c40ab27cc2cb150d74068bae3e884ccd44f8de60f8a000000000000000000000000c2f31204b7d31ee333855cce9b83e2d6f00b2867",
        "nonce": "0x116",
        "chainId": "0xaa36a7"
      },
      "additionalContracts": [],
      "isFixedGasLimit": false
    }
  ],
  "receipts": [
    {
      "status": "0x1",
      "cumulativeGasUsed": "0x96abf4",
      "logs": [
        {
          "address": "0xd789796f176954476b0001c690de820fc30ed7b5",
          "topics": [
            "0x2f8788117e7eff1d82e926ec794901d17c78024a50270940304540a733656f0d",
            "0x566c814873eed56a69b28c40ab27cc2cb150d74068bae3e884ccd44f8de60f8a",
            "0x000000000000000000000000c2f31204b7d31ee333855cce9b83e2d6f00b2867",
            "0x0000000000000000000000007ca2331b559ab659ac7a4a7573fadd3dfb91f19c"
          ],
          "data": "0x",
          "blockHash": "0x64b6bf2526ddda6a552072b488900a7b897a7f6ba5b5eaff15f87ee21f6ea63f",
          "blockNumber": "0x8d72c5",
          "blockTimestamp": "0x68d3ef88",
          "transactionHash": "0x9df92f79ee1a1fb6a19b51a536141c1ca1978c25008bf81e4e98499a227f7316",
          "transactionIndex": "0x55",
          "logIndex": "0xa9",
          "removed": false
        }
      ],
      "logsBloom": "0x00000005000000000000000000000000000000000000000000000000000000000000000000000000000000000000000000000000000000000000000000000800000000000000000000000000000000000000000000000000000000000000000000000000000000000000000000000000000000000000000000004000000000000000008000000008000000000000000000000000000000000000000800000000800000000000000000001000000000000000000000000000001001000000000000000001000000000000000000020000000010000000000100000000000000000000000000000000000000000000000000000000000000000000000000000000",
      "type": "0x2",
      "transactionHash": "0x9df92f79ee1a1fb6a19b51a536141c1ca1978c25008bf81e4e98499a227f7316",
      "transactionIndex": "0x55",
      "blockHash": "0x64b6bf2526ddda6a552072b488900a7b897a7f6ba5b5eaff15f87ee21f6ea63f",
      "blockNumber": "0x8d72c5",
      "gasUsed": "0xd3d2",
      "effectiveGasPrice": "0xf4299",
      "from": "0x7ca2331b559ab659ac7a4a7573fadd3dfb91f19c",
      "to": "0xd789796f176954476b0001c690de820fc30ed7b5",
      "contractAddress": null
    }
  ],
  "libraries": [],
  "pending": [],
  "returns": {},
  "timestamp": 1758719880905,
  "chain": 11155111,
  "commit": "cf7e2eb"
}