{
  "transactions": [
    {
      "hash": "0x1aaf74de38b88860934a2fb5ca829ea99e6f1cc3a8e540bd53ce45b05388c1a2",
      "transactionType": "CALL",
      "contractName": null,
      "contractAddress": "0x2993d1ba363276469eafb667f237a441717a433e",
      "function": "grantRole(bytes32,address)",
      "arguments": [
        "0x566c814873eed56a69b28c40ab27cc2cb150d74068bae3e884ccd44f8de60f8a",
        "0xE9501390AfF62f799B0b033BED47d69C59B81243"
      ],
      "transaction": {
        "from": "0x7ca2331b559ab659ac7a4a7573fadd3dfb91f19c",
        "to": "0x2993d1ba363276469eafb667f237a441717a433e",
        "gas": "0x135c9",
        "value": "0x0",
        "input": "0x2f2ff15d566c814873eed56a69b28c40ab27cc2cb150d74068bae3e884ccd44f8de60f8a000000000000000000000000e9501390aff62f799b0b033bed47d69c59b81243",
        "nonce": "0xef",
        "chainId": "0xaa36a7"
      },
      "additionalContracts": [],
      "isFixedGasLimit": false
    }
  ],
  "receipts": [
    {
      "status": "0x1",
      "cumulativeGasUsed": "0x98ad2f",
      "logs": [
        {
          "address": "0x2993d1ba363276469eafb667f237a441717a433e",
          "topics": [
            "0x2f8788117e7eff1d82e926ec794901d17c78024a50270940304540a733656f0d",
            "0x566c814873eed56a69b28c40ab27cc2cb150d74068bae3e884ccd44f8de60f8a",
            "0x000000000000000000000000e9501390aff62f799b0b033bed47d69c59b81243",
            "0x0000000000000000000000007ca2331b559ab659ac7a4a7573fadd3dfb91f19c"
          ],
          "data": "0x",
          "blockHash": "0x60a5b50f87410209645a21aff4faf7d7f385720b44e4beb47c79b1bfa337d94b",
          "blockNumber": "0x8d4ab5",
          "blockTimestamp": "0x68d1feb4",
          "transactionHash": "0x1aaf74de38b88860934a2fb5ca829ea99e6f1cc3a8e540bd53ce45b05388c1a2",
          "transactionIndex": "0x76",
          "logIndex": "0x95",
          "removed": false
        }
      ],
      "logsBloom": "0x00000004000000000000000000020000000000000000000000000000000000000000000000000000000000000000000000000000000000008000000000000800000000000000000000000000000000000000000000000000000000000000000100000000000000000002000000000000000000000000000000000000000000000000008000000008000000000000000000000000000000000000000000000000800000000000000000001000000000000000000000000000001000000000000000000000000200000000000000020000000000000000000100000000000000000000000000000000000000000002000000000000000000000000000000000000",
      "type": "0x2",
      "transactionHash": "0x1aaf74de38b88860934a2fb5ca829ea99e6f1cc3a8e540bd53ce45b05388c1a2",
      "transactionIndex": "0x76",
      "blockHash": "0x60a5b50f87410209645a21aff4faf7d7f385720b44e4beb47c79b1bfa337d94b",
      "blockNumber": "0x8d4ab5",
      "gasUsed": "0xd3d2",
      "effectiveGasPrice": "0xf4730",
      "from": "0x7ca2331b559ab659ac7a4a7573fadd3dfb91f19c",
      "to": "0x2993d1ba363276469eafb667f237a441717a433e",
      "contractAddress": null
    }
  ],
  "libraries": [],
  "pending": [],
  "returns": {},
  "timestamp": 1758592694859,
  "chain": 11155111,
  "commit": "cf7e2eb"
}