{
  "transactions": [
    {
      "hash": "0x3da78b73e001598502713f3e8f0f08ed7f89018da0e2dc2c17817efc98f63429",
      "transactionType": "CALL",
      "contractName": null,
      "contractAddress": "0x2993d1ba363276469eafb667f237a441717a433e",
      "function": "grantRole(bytes32,address)",
      "arguments": [
        "0x566c814873eed56a69b28c40ab27cc2cb150d74068bae3e884ccd44f8de60f8a",
        "0x9F10b462EAD0EFBe1507713F777482911bdfCb82"
      ],
      "transaction": {
        "from": "0x7ca2331b559ab659ac7a4a7573fadd3dfb91f19c",
        "to": "0x2993d1ba363276469eafb667f237a441717a433e",
        "gas": "0x135c9",
        "value": "0x0",
        "input": "0x2f2ff15d566c814873eed56a69b28c40ab27cc2cb150d74068bae3e884ccd44f8de60f8a0000000000000000000000009f10b462ead0efbe1507713f777482911bdfcb82",
        "nonce": "0xf0",
        "chainId": "0xaa36a7"
      },
      "additionalContracts": [],
      "isFixedGasLimit": false
    }
  ],
  "receipts": [
    {
      "status": "0x1",
      "cumulativeGasUsed": "0x57f5e1",
      "logs": [
        {
          "address": "0x2993d1ba363276469eafb667f237a441717a433e",
          "topics": [
            "0x2f8788117e7eff1d82e926ec794901d17c78024a50270940304540a733656f0d",
            "0x566c814873eed56a69b28c40ab27cc2cb150d74068bae3e884ccd44f8de60f8a",
            "0x0000000000000000000000009f10b462ead0efbe1507713f777482911bdfcb82",
            "0x0000000000000000000000007ca2331b559ab659ac7a4a7573fadd3dfb91f19c"
          ],
          "data": "0x",
          "blockHash": "0xdcae2c2a518059e7b37b8cf2720570f014c3df1e554054e80bf009b910697361",
          "blockNumber": "0x8d4abc",
          "blockTimestamp": "0x68d1ff08",
          "transactionHash": "0x3da78b73e001598502713f3e8f0f08ed7f89018da0e2dc2c17817efc98f63429",
          "transactionIndex": "0x41",
          "logIndex": "0x3d",
          "removed": false
        }
      ],
      "logsBloom": "0x00000004000000000000000000000000000000000000000000000000000000000000000000004000000000000000000000000000000000000000000000000800000000000000000000000000000000000000000000000000000000000000000000000000000000000002000000000000000000000000000000000000000000000000008000000008000000000000000000000000000000000000000000000000800000000000000000001000000000000000000000000000001000000000000000000000000200000000000000020000000000000000000100000000000010000000000000000000000200000002000000000000000000000000000000000000",
      "type": "0x2",
      "transactionHash": "0x3da78b73e001598502713f3e8f0f08ed7f89018da0e2dc2c17817efc98f63429",
      "transactionIndex": "0x41",
      "blockHash": "0xdcae2c2a518059e7b37b8cf2720570f014c3df1e554054e80bf009b910697361",
      "blockNumber": "0x8d4abc",
      "gasUsed": "0xd3d2",
      "effectiveGasPrice": "0xf4773",
      "from": "0x7ca2331b559ab659ac7a4a7573fadd3dfb91f19c",
      "to": "0x2993d1ba363276469eafb667f237a441717a433e",
      "contractAddress": null
    }
  ],
  "libraries": [],
  "pending": [],
  "returns": {},
  "timestamp": 1758592777651,
  "chain": 11155111,
  "commit": "cf7e2eb"
}