{
  "transactions": [
    {
      "hash": "0x7cb5fecdc204eb2fb04eaf7182c62f748b3ae0267e6cc687c6f3028a6261615a",
      "transactionType": "CALL",
      "contractName": null,
      "contractAddress": "0xd789796f176954476b0001c690de820fc30ed7b5",
      "function": "grantRole(bytes32,address)",
      "arguments": [
        "0x566c814873eed56a69b28c40ab27cc2cb150d74068bae3e884ccd44f8de60f8a",
        "0x68cc4eB23Aea60c94434336fCDd6680D191C60ec"
      ],
      "transaction": {
        "from": "0x7ca2331b559ab659ac7a4a7573fadd3dfb91f19c",
        "to": "0xd789796f176954476b0001c690de820fc30ed7b5",
        "gas": "0x135c9",
        "value": "0x0",
        "input": "0x2f2ff15d566c814873eed56a69b28c40ab27cc2cb150d74068bae3e884ccd44f8de60f8a00000000000000000000000068cc4eb23aea60c94434336fcdd6680d191c60ec",
        "nonce": "0x117",
        "chainId": "0xaa36a7"
      },
      "additionalContracts": [],
      "isFixedGasLimit": false
    }
  ],
  "receipts": [
    {
      "status": "0x1",
      "cumulativeGasUsed": "0xc90bbd",
      "logs": [
        {
          "address": "0xd789796f176954476b0001c690de820fc30ed7b5",
          "topics": [
            "0x2f8788117e7eff1d82e926ec794901d17c78024a50270940304540a733656f0d",
            "0x566c814873eed56a69b28c40ab27cc2cb150d74068bae3e884ccd44f8de60f8a",
            "0x00000000000000000000000068cc4eb23aea60c94434336fcdd6680d191c60ec",
            "0x0000000000000000000000007ca2331b559ab659ac7a4a7573fadd3dfb91f19c"
          ],
          "data": "0x",
          "blockHash": "0xada00d2d02e9c29b9efdf94fd6605b09e827a802493e42177db4d619c2283377",
          "blockNumber": "0x8d72c6",
          "blockTimestamp": "0x68d3ef94",
          "transactionHash": "0x7cb5fecdc204eb2fb04eaf7182c62f748b3ae0267e6cc687c6f3028a6261615a",
          "transactionIndex": "0xa7",
          "logIndex": "0x7a",
          "removed": false
        }
      ],
      "logsBloom": "0x00000004000000000000000000000000000000000000000000000000000000000000000000000000000000000000000000000000000000000000000000000800000000000000000000000000000000000000000000000000000000000000000000000000000000000000000000000000000000000000000000004000000000000000008000000008000000000000000000000040000000000000000800004000800000000000000000001000000000000000000000002000001001000000000000000000000000000000000000020000000000000000000100000000000000000000000000000000000000000000000000000000000000000000000000000000",
      "type": "0x2",
      "transactionHash": "0x7cb5fecdc204eb2fb04eaf7182c62f748b3ae0267e6cc687c6f3028a6261615a",
      "transactionIndex": "0xa7",
      "blockHash": "0xada00d2d02e9c29b9efdf94fd6605b09e827a802493e42177db4d619c2283377",
      "blockNumber": "0x8d72c6",
      "gasUsed": "0xd3d2",
      "effectiveGasPrice": "0xf4293",
      "from": "0x7ca2331b559ab659ac7a4a7573fadd3dfb91f19c",
      "to": "0xd789796f176954476b0001c690de820fc30ed7b5",
      "contractAddress": null
    }
  ],
  "libraries": [],
  "pending": [],
  "returns": {},
  "timestamp": 1758719893797,
  "chain": 11155111,
  "commit": "cf7e2eb"
}