{
  "transactions": [
    {
      "hash": "0x8ecbc9aa30ade8c24abd68df518be914fd59437df24c361f945650882c132d4f",
      "transactionType": "CALL",
      "contractName": null,
      "contractAddress": "0x68cc4eb23aea60c94434336fcdd6680d191c60ec",
      "function": "registerIdentity(address,bytes32)",
      "arguments": [
        "0x7cA2331B559Ab659AC7a4A7573fADD3DFB91f19c",
        "0xd0857d102ee4202301e1bccf95d5662ce49cecba350f7417b750a164d954396e"
      ],
      "transaction": {
        "from": "0x7ca2331b559ab659ac7a4a7573fadd3dfb91f19c",
        "to": "0x68cc4eb23aea60c94434336fcdd6680d191c60ec",
        "gas": "0x10e475",
        "value": "0x0",
        "input": "0xe2706d070000000000000000000000007ca2331b559ab659ac7a4a7573fadd3dfb91f19cd0857d102ee4202301e1bccf95d5662ce49cecba350f7417b750a164d954396e",
        "nonce": "0x11a",
        "chainId": "0xaa36a7"
      },
      "additionalContracts": [],
      "isFixedGasLimit": false
    },
    {
      "hash": "0x85fa9aa258d3f490804364becaf1932889b05faf63e2de71afd794a740868bd1",
      "transactionType": "CALL",
      "contractName": null,
      "contractAddress": "0x68cc4eb23aea60c94434336fcdd6680d191c60ec",
      "function": "setMetadataURI(address,string)",
      "arguments": [
        "0x7cA2331B559Ab659AC7a4A7573fADD3DFB91f19c",
        "ipfs://example-demo"
      ],
      "transaction": {
        "from": "0x7ca2331b559ab659ac7a4a7573fadd3dfb91f19c",
        "to": "0x68cc4eb23aea60c94434336fcdd6680d191c60ec",
        "gas": "0x6cb1b",
        "value": "0x0",
        "input": "0x1c2605650000000000000000000000007ca2331b559ab659ac7a4a7573fadd3dfb91f19c00000000000000000000000000000000000000000000000000000000000000400000000000000000000000000000000000000000000000000000000000000013697066733a2f2f6578616d706c652d64656d6f00000000000000000000000000",
        "nonce": "0x11b",
        "chainId": "0xaa36a7"
      },
      "additionalContracts": [],
      "isFixedGasLimit": false
    }
  ],
  "receipts": [
    {
      "status": "0x1",
      "cumulativeGasUsed": "0x68114b",
      "logs": [
        {
          "address": "0xd789796f176954476b0001c690de820fc30ed7b5",
          "topics": [
            "0x103cd5403410d6908bdc2f851448a30f60c77a8af566d2a82b2404582e0eb612",
            "0x0000000000000000000000000000000000000000000000000000000000000004",
            "0x91628fc6e62228386087a41704ebe050b1eebe815a1375e9e2de6321e9f6fb3c",
            "0x0000000000000000000000007ca2331b559ab659ac7a4a7573fadd3dfb91f19c"
          ],
          "data": "0x000000000000000000000000c2f31204b7d31ee333855cce9b83e2d6f00b28670000000000000000000000000000000000000000000000000000000000000000",
          "blockHash": "0x7025d4177792734ad6d8e3d65f02054e34e26f706f8c2bc8f475dcd447d7ad6d",
          "blockNumber": "0x8d7459",
          "blockTimestamp": "0x68d40284",
          "transactionHash": "0x8ecbc9aa30ade8c24abd68df518be914fd59437df24c361f945650882c132d4f",
          "transactionIndex": "0x5a",
          "logIndex": "0x51",
          "removed": false
        },
        {
          "address": "0xc2f31204b7d31ee333855cce9b83e2d6f00b2867",
          "topics": [
            "0x51f3e16491a1245725e3dd6aab55df59539bc9a5a3c1984f588ca1beef5d2238",
            "0x0000000000000000000000007ca2331b559ab659ac7a4a7573fadd3dfb91f19c"
          ],
          "data": "0x",
          "blockHash": "0x7025d4177792734ad6d8e3d65f02054e34e26f706f8c2bc8f475dcd447d7ad6d",
          "blockNumber": "0x8d7459",
          "blockTimestamp": "0x68d40284",
          "transactionHash": "0x8ecbc9aa30ade8c24abd68df518be914fd59437df24c361f945650882c132d4f",
          "transactionIndex": "0x5a",
          "logIndex": "0x52",
          "removed": false
        },
        {
          "address": "0xd789796f176954476b0001c690de820fc30ed7b5",
          "topics": [
            "0x103cd5403410d6908bdc2f851448a30f60c77a8af566d2a82b2404582e0eb612",
            "0x0000000000000000000000000000000000000000000000000000000000000005",
            "0x09c857b36f13708a25c978acd3557d87c8fa7b7cb804a450175aa00bc9717ed2",
            "0x0000000000000000000000007ca2331b559ab659ac7a4a7573fadd3dfb91f19c"
          ],
          "data": "0x00000000000000000000000068cc4eb23aea60c94434336fcdd6680d191c60ecd0857d102ee4202301e1bccf95d5662ce49cecba350f7417b750a164d954396e",
          "blockHash": "0x7025d4177792734ad6d8e3d65f02054e34e26f706f8c2bc8f475dcd447d7ad6d",
          "blockNumber": "0x8d7459",
          "blockTimestamp": "0x68d40284",
          "transactionHash": "0x8ecbc9aa30ade8c24abd68df518be914fd59437df24c361f945650882c132d4f",
          "transactionIndex": "0x5a",
          "logIndex": "0x53",
          "removed": false
        },
        {
          "address": "0x68cc4eb23aea60c94434336fcdd6680d191c60ec",
          "topics": [
            "0x209ae2eb4ff1890ce972a80ec3e167b52d41ab089135cc6430447b1430e824be",
            "0x0000000000000000000000007ca2331b559ab659ac7a4a7573fadd3dfb91f19c",
            "0xd0857d102ee4202301e1bccf95d5662ce49cecba350f7417b750a164d954396e"
          ],
          "data": "0x",
          "blockHash": "0x7025d4177792734ad6d8e3d65f02054e34e26f706f8c2bc8f475dcd447d7ad6d",
          "blockNumber": "0x8d7459",
          "blockTimestamp": "0x68d40284",
          "transactionHash": "0x8ecbc9aa30ade8c24abd68df518be914fd59437df24c361f945650882c132d4f",
          "transactionIndex": "0x5a",
          "logIndex": "0x54",
          "removed": false
        }
      ],
      "logsBloom": "0x00008000000000000000000000001000820000000000000000000000000000000000000008000000000000000000000000000000000000000000000004000a40000010000000000000000000000000000000002000000002000020000800000008000000000000000000000000000000000000000000000000004000000000000000008000000000100000000000001000000800000000040000000800200000000400040000000000000000000000000000000000000000002101000000100000000000000000000000000000020000000000808000000000000000000400000000000000000000000020000000000004000000000000000100000000000000",
      "type": "0x2",
      "transactionHash": "0x8ecbc9aa30ade8c24abd68df518be914fd59437df24c361f945650882c132d4f",
      "transactionIndex": "0x5a",
      "blockHash": "0x7025d4177792734ad6d8e3d65f02054e34e26f706f8c2bc8f475dcd447d7ad6d",
      "blockNumber": "0x8d7459",
      "gasUsed": "0xc3ad5",
      "effectiveGasPrice": "0x1070c7",
      "from": "0x7ca2331b559ab659ac7a4a7573fadd3dfb91f19c",
      "to": "0x68cc4eb23aea60c94434336fcdd6680d191c60ec",
      "contractAddress": null
    },
    {
      "status": "0x1",
      "cumulativeGasUsed": "0x6cfc60",
      "logs": [
        {
          "address": "0xd789796f176954476b0001c690de820fc30ed7b5",
          "topics": [
            "0x103cd5403410d6908bdc2f851448a30f60c77a8af566d2a82b2404582e0eb612",
            "0x0000000000000000000000000000000000000000000000000000000000000006",
            "0x4d3543630857ca0de5c6f67197e617a9e05c23ace2a45b89f5d90524e38cd283",
            "0x0000000000000000000000007ca2331b559ab659ac7a4a7573fadd3dfb91f19c"
          ],
          "data": "0x00000000000000000000000068cc4eb23aea60c94434336fcdd6680d191c60ec59b62c2c496e61615fe131cc142c0fe923a2808d1318154f9c4a9dbe62f9cddd",
          "blockHash": "0x7025d4177792734ad6d8e3d65f02054e34e26f706f8c2bc8f475dcd447d7ad6d",
          "blockNumber": "0x8d7459",
          "blockTimestamp": "0x68d40284",
          "transactionHash": "0x85fa9aa258d3f490804364becaf1932889b05faf63e2de71afd794a740868bd1",
          "transactionIndex": "0x5b",
          "logIndex": "0x55",
          "removed": false
        },
        {
          "address": "0x68cc4eb23aea60c94434336fcdd6680d191c60ec",
          "topics": [
            "0x1b460238cb695fc31c141a22bca8cea3e92a6fa4ded4ccee2a33f9972f2eece0",
            "0x0000000000000000000000007ca2331b559ab659ac7a4a7573fadd3dfb91f19c"
          ],
          "data": "0x00000000000000000000000000000000000000000000000000000000000000200000000000000000000000000000000000000000000000000000000000000013697066733a2f2f6578616d706c652d64656d6f00000000000000000000000000",
          "blockHash": "0x7025d4177792734ad6d8e3d65f02054e34e26f706f8c2bc8f475dcd447d7ad6d",
          "blockNumber": "0x8d7459",
          "blockTimestamp": "0x68d40284",
          "transactionHash": "0x85fa9aa258d3f490804364becaf1932889b05faf63e2de71afd794a740868bd1",
          "transactionIndex": "0x5b",
          "logIndex": "0x56",
          "removed": false
        }
      ],
      "logsBloom": "0x00000000000000000000000000001000000000000000000000040000000000000000000000000000000000000000000000000008008400000000000000000a00000000000000000000000000000000000000000000000000000000000800000000000000000000000000000000000000000000000000000000004000000000000000008400000000000000000000000000400000000000040000000800200000000000000000000000000000000000100000000000000000000101080000000000000000000000000000000020020000000000000000000000000000000000000000000000000000000000000000000000000000000000000000000000000000",
      "type": "0x2",
      "transactionHash": "0x85fa9aa258d3f490804364becaf1932889b05faf63e2de71afd794a740868bd1",
      "transactionIndex": "0x5b",
      "blockHash": "0x7025d4177792734ad6d8e3d65f02054e34e26f706f8c2bc8f475dcd447d7ad6d",
      "blockNumber": "0x8d7459",
      "gasUsed": "0x4eb15",
      "effectiveGasPrice": "0x1070c7",
      "from": "0x7ca2331b559ab659ac7a4a7573fadd3dfb91f19c",
      "to": "0x68cc4eb23aea60c94434336fcdd6680d191c60ec",
      "contractAddress": null
    }
  ],
  "libraries": [],
  "pending": [],
  "returns": {},
  "timestamp": 1758724740871,
  "chain": 11155111,
  "commit": "cf7e2eb"
}