{
  "transactions": [
    {
      "hash": "0xad9c1e52a73926d52250e22885bffeed80504f56a6b95fb78cda5089fb7195af",
      "transactionType": "CALL",
      "contractName": null,
      "contractAddress": "0x68cc4eb23aea60c94434336fcdd6680d191c60ec",
      "function": "setMetadataURI(address,string)",
      "arguments": [
        "0x5606D16d531b2eFDdA53C8E5aEB4CaB09b858F26",
        "ipfs://example-demo"
      ],
      "transaction": {
        "from": "0x7ca2331b559ab659ac7a4a7573fadd3dfb91f19c",
        "to": "0x68cc4eb23aea60c94434336fcdd6680d191c60ec",
        "gas": "0x79318",
        "value": "0x0",
        "input": "0x1c2605650000000000000000000000005606d16d531b2efdda53c8e5aeb4cab09b858f2600000000000000000000000000000000000000000000000000000000000000400000000000000000000000000000000000000000000000000000000000000013697066733a2f2f6578616d706c652d64656d6f00000000000000000000000000",
        "nonce": "0x119",
        "chainId": "0xaa36a7"
      },
      "additionalContracts": [],
      "isFixedGasLimit": false
    }
  ],
  "receipts": [
    {
      "status": "0x1",
      "cumulativeGasUsed": "0x6dfbf5",
      "logs": [
        {
          "address": "0xd789796f176954476b0001c690de820fc30ed7b5",
          "topics": [
            "0x103cd5403410d6908bdc2f851448a30f60c77a8af566d2a82b2404582e0eb612",
            "0x0000000000000000000000000000000000000000000000000000000000000003",
            "0x4d3543630857ca0de5c6f67197e617a9e05c23ace2a45b89f5d90524e38cd283",
            "0x0000000000000000000000005606d16d531b2efdda53c8e5aeb4cab09b858f26"
          ],
          "data": "0x00000000000000000000000068cc4eb23aea60c94434336fcdd6680d191c60ec59b62c2c496e61615fe131cc142c0fe923a2808d1318154f9c4a9dbe62f9cddd",
          "blockHash": "0xc0248d4b12200b406fb37b3d4e250b2128ed0e6c0983034a98d8b9b00938899d",
          "blockNumber": "0x8d7369",
          "blockTimestamp": "0x68d3f738",
          "transactionHash": "0xad9c1e52a73926d52250e22885bffeed80504f56a6b95fb78cda5089fb7195af",
          "transactionIndex": "0x47",
          "logIndex": "0x57",
          "removed": false
        },
        {
          "address": "0x68cc4eb23aea60c94434336fcdd6680d191c60ec",
          "topics": [
            "0x1b460238cb695fc31c141a22bca8cea3e92a6fa4ded4ccee2a33f9972f2eece0",
            "0x0000000000000000000000005606d16d531b2efdda53c8e5aeb4cab09b858f26"
          ],
          "data": "0x00000000000000000000000000000000000000000000000000000000000000200000000000000000000000000000000000000000000000000000000000000013697066733a2f2f6578616d706c652d64656d6f00000000000000000000000000",
          "blockHash": "0xc0248d4b12200b406fb37b3d4e250b2128ed0e6c0983034a98d8b9b00938899d",
          "blockNumber": "0x8d7369",
          "blockTimestamp": "0x68d3f738",
          "transactionHash": "0xad9c1e52a73926d52250e22885bffeed80504f56a6b95fb78cda5089fb7195af",
          "transactionIndex": "0x47",
          "logIndex": "0x58",
          "removed": false
        }
      ],
      "logsBloom": "0x00000000000000000000000000001000000000000000000000040000000000000000000000000000000000000000000000000008028000000000000000000200000000000000000000000000000000000000000000000000000008000800000000000000000000000000000000000000000000000000000000004000000000000000000020000000000000000000000000400000000000040000000800200000000000000000000000000000000000100000000000800000000101000000400000000000000000000000000020000000000000000000000000000000000000000000000000000000000000000000000008000000000000000000000000000000",
      "type": "0x2",
      "transactionHash": "0xad9c1e52a73926d52250e22885bffeed80504f56a6b95fb78cda5089fb7195af",
      "transactionIndex": "0x47",
      "blockHash": "0xc0248d4b12200b406fb37b3d4e250b2128ed0e6c0983034a98d8b9b00938899d",
      "blockNumber": "0x8d7369",
      "gasUsed": "0x52de1",
      "effectiveGasPrice": "0xf4332",
      "from": "0x7ca2331b559ab659ac7a4a7573fadd3dfb91f19c",
      "to": "0x68cc4eb23aea60c94434336fcdd6680d191c60ec",
      "contractAddress": null
    }
  ],
  "libraries": [],
  "pending": [],
  "returns": {},
  "timestamp": 1758721849585,
  "chain": 11155111,
  "commit": "cf7e2eb"
}