{
  "transactions": [
    {
      "hash": "0xdfd88c8a1545968c11eb8e485f8460da7104f4c86a8267bddc47f1f80409563d",
      "transactionType": "CALL",
      "contractName": null,
      "contractAddress": "0x9f10b462ead0efbe1507713f777482911bdfcb82",
      "function": "setMetadataURI(address,string)",
      "arguments": [
        "0x5606D16d531b2eFDdA53C8E5aEB4CaB09b858F26",
        "ipfs://example-demo"
      ],
      "transaction": {
        "from": "0x7ca2331b559ab659ac7a4a7573fadd3dfb91f19c",
        "to": "0x9f10b462ead0efbe1507713f777482911bdfcb82",
        "gas": "0x79318",
        "value": "0x0",
        "input": "0x1c2605650000000000000000000000005606d16d531b2efdda53c8e5aeb4cab09b858f2600000000000000000000000000000000000000000000000000000000000000400000000000000000000000000000000000000000000000000000000000000013697066733a2f2f6578616d706c652d64656d6f00000000000000000000000000",
        "nonce": "0xf2",
        "chainId": "0xaa36a7"
      },
      "additionalContracts": [],
      "isFixedGasLimit": false
    }
  ],
  "receipts": [
    {
      "status": "0x1",
      "cumulativeGasUsed": "0x326cf8b",
      "logs": [
        {
          "address": "0x2993d1ba363276469eafb667f237a441717a433e",
          "topics": [
            "0x103cd5403410d6908bdc2f851448a30f60c77a8af566d2a82b2404582e0eb612",
            "0x0000000000000000000000000000000000000000000000000000000000000003",
            "0x4d3543630857ca0de5c6f67197e617a9e05c23ace2a45b89f5d90524e38cd283",
            "0x0000000000000000000000005606d16d531b2efdda53c8e5aeb4cab09b858f26"
          ],
          "data": "0x0000000000000000000000009f10b462ead0efbe1507713f777482911bdfcb8259b62c2c496e61615fe131cc142c0fe923a2808d1318154f9c4a9dbe62f9cddd",
          "blockHash": "0xae06c27c124c64e75b3e5b88a2026462a0fc5db66e6cf1763f678c719ea3a147",
          "blockNumber": "0x8d4ac6",
          "blockTimestamp": "0x68d1ff80",
          "transactionHash": "0xdfd88c8a1545968c11eb8e485f8460da7104f4c86a8267bddc47f1f80409563d",
          "transactionIndex": "0x99",
          "logIndex": "0xa1",
          "removed": false
        },
        {
          "address": "0x9f10b462ead0efbe1507713f777482911bdfcb82",
          "topics": [
            "0x1b460238cb695fc31c141a22bca8cea3e92a6fa4ded4ccee2a33f9972f2eece0",
            "0x0000000000000000000000005606d16d531b2efdda53c8e5aeb4cab09b858f26"
          ],
          "data": "0x00000000000000000000000000000000000000000000000000000000000000200000000000000000000000000000000000000000000000000000000000000013697066733a2f2f6578616d706c652d64656d6f00000000000000000000000000",
          "blockHash": "0xae06c27c124c64e75b3e5b88a2026462a0fc5db66e6cf1763f678c719ea3a147",
          "blockNumber": "0x8d4ac6",
          "blockTimestamp": "0x68d1ff80",
          "transactionHash": "0xdfd88c8a1545968c11eb8e485f8460da7104f4c86a8267bddc47f1f80409563d",
          "transactionIndex": "0x99",
          "logIndex": "0xa2",
          "removed": false
        }
      ],
      "logsBloom": "0x00000000000000000000000000001000800000000000000000040000000000000000000000000000000000000000000000000008028000000000000000000000000000000000000000000000000000000000000000000000000008000000000000000000000000000002000000000000000000000000000000000000000000000000000020000000000000000000000000400000000000040000000000000000000000000000000000000000000000100000000100800000000100000000400000000000000200000000000020000000000000000000000000000000000000200000000000000000000000000002000008000000000000000000000000000000",
      "type": "0x2",
      "transactionHash": "0xdfd88c8a1545968c11eb8e485f8460da7104f4c86a8267bddc47f1f80409563d",
      "transactionIndex": "0x99",
      "blockHash": "0xae06c27c124c64e75b3e5b88a2026462a0fc5db66e6cf1763f678c719ea3a147",
      "blockNumber": "0x8d4ac6",
      "gasUsed": "0x52de1",
      "effectiveGasPrice": "0xf4773",
      "from": "0x7ca2331b559ab659ac7a4a7573fadd3dfb91f19c",
      "to": "0x9f10b462ead0efbe1507713f777482911bdfcb82",
      "contractAddress": null
    }
  ],
  "libraries": [],
  "pending": [],
  "returns": {},
  "timestamp": 1758592897263,
  "chain": 11155111,
  "commit": "cf7e2eb"
}